{
  "_format": "hh-sol-artifact-1",
  "contractName": "Delance",
  "sourceName": "contracts/Delance.sol",
  "abi": [
    {
      "inputs": [
        {
          "internalType": "address payable",
          "name": "_employer",
          "type": "address"
        },
        {
          "internalType": "address payable",
          "name": "_freelancer",
          "type": "address"
        },
        {
          "internalType": "address",
          "name": "_admin",
          "type": "address"
        },
        {
          "internalType": "uint256",
          "name": "_deadline",
          "type": "uint256"
        }
      ],
      "stateMutability": "payable",
      "type": "constructor"
    },
    {
      "anonymous": false,
      "inputs": [
        {
          "indexed": false,
          "internalType": "uint256",
          "name": "amount",
          "type": "uint256"
        },
        {
          "indexed": false,
          "internalType": "string",
          "name": "title",
          "type": "string"
        },
        {
          "indexed": false,
          "internalType": "bool",
          "name": "locked",
          "type": "bool"
        },
        {
          "indexed": false,
          "internalType": "bool",
          "name": "paid",
          "type": "bool"
        }
      ],
      "name": "RequestCreated",
      "type": "event"
    },
    {
      "anonymous": false,
      "inputs": [
        {
          "indexed": false,
          "internalType": "address",
          "name": "receiver",
          "type": "address"
        },
        {
          "indexed": false,
          "internalType": "uint256",
          "name": "amount",
          "type": "uint256"
        }
      ],
      "name": "RequestPaid",
      "type": "event"
    },
    {
      "anonymous": false,
      "inputs": [
        {
          "indexed": false,
          "internalType": "bool",
          "name": "locked",
          "type": "bool"
        }
      ],
      "name": "RequestUnlocked",
      "type": "event"
    },
    {
      "inputs": [],
      "name": "amountToPayToFreelancer",
      "outputs": [
        {
          "internalType": "uint256",
          "name": "",
          "type": "uint256"
        }
      ],
      "stateMutability": "view",
      "type": "function"
    },
    {
      "inputs": [],
      "name": "approveEmployerRejectionByAdmin",
      "outputs": [],
      "stateMutability": "nonpayable",
      "type": "function"
    },
    {
      "inputs": [
        {
          "internalType": "uint256",
          "name": "_amount",
          "type": "uint256"
        },
        {
          "internalType": "string",
          "name": "_title",
          "type": "string"
        }
      ],
      "name": "createRequest",
      "outputs": [],
      "stateMutability": "nonpayable",
      "type": "function"
    },
    {
      "inputs": [],
      "name": "deadline",
      "outputs": [
        {
          "internalType": "uint256",
          "name": "",
          "type": "uint256"
        }
      ],
      "stateMutability": "view",
      "type": "function"
    },
    {
      "inputs": [],
      "name": "employer",
      "outputs": [
        {
          "internalType": "address payable",
          "name": "",
          "type": "address"
        }
      ],
      "stateMutability": "view",
      "type": "function"
    },
    {
      "inputs": [],
      "name": "freelancer",
      "outputs": [
        {
          "internalType": "address payable",
          "name": "",
          "type": "address"
        }
      ],
      "stateMutability": "view",
      "type": "function"
    },
    {
      "inputs": [],
      "name": "getRequests",
      "outputs": [
        {
          "components": [
            {
              "internalType": "uint256",
              "name": "amount",
              "type": "uint256"
            },
            {
              "internalType": "string",
              "name": "title",
              "type": "string"
            },
            {
              "internalType": "bool",
              "name": "locked",
              "type": "bool"
            },
            {
              "internalType": "bool",
              "name": "paid",
              "type": "bool"
            }
          ],
          "internalType": "struct Delance.Request[]",
          "name": "",
          "type": "tuple[]"
        }
      ],
      "stateMutability": "view",
      "type": "function"
    },
    {
      "inputs": [],
      "name": "isFreelancerWorkRejected",
      "outputs": [
        {
          "internalType": "bool",
          "name": "",
          "type": "bool"
        }
      ],
      "stateMutability": "view",
      "type": "function"
    },
    {
      "inputs": [
        {
          "internalType": "uint256",
          "name": "indexOfRequestToPay",
          "type": "uint256"
        }
      ],
      "name": "payRequest",
      "outputs": [],
      "stateMutability": "nonpayable",
      "type": "function"
    },
    {
      "inputs": [],
      "name": "price",
      "outputs": [
        {
          "internalType": "uint256",
          "name": "",
          "type": "uint256"
        }
      ],
      "stateMutability": "view",
      "type": "function"
    },
    {
      "inputs": [],
      "name": "reentrantPreventionFlag",
      "outputs": [
        {
          "internalType": "bool",
          "name": "",
          "type": "bool"
        }
      ],
      "stateMutability": "view",
      "type": "function"
    },
    {
      "inputs": [
        {
          "internalType": "uint256",
          "name": "",
          "type": "uint256"
        }
      ],
      "name": "requests",
      "outputs": [
        {
          "internalType": "uint256",
          "name": "amount",
          "type": "uint256"
        },
        {
          "internalType": "string",
          "name": "title",
          "type": "string"
        },
        {
          "internalType": "bool",
          "name": "locked",
          "type": "bool"
        },
        {
          "internalType": "bool",
          "name": "paid",
          "type": "bool"
        }
      ],
      "stateMutability": "view",
      "type": "function"
    },
    {
      "inputs": [
        {
          "internalType": "address payable",
          "name": "_freelancer",
          "type": "address"
        }
      ],
      "name": "setAddress",
      "outputs": [],
      "stateMutability": "nonpayable",
      "type": "function"
    },
    {
      "inputs": [
        {
          "internalType": "uint256",
          "name": "_deadline",
          "type": "uint256"
        }
      ],
      "name": "setDeadline",
      "outputs": [],
      "stateMutability": "nonpayable",
      "type": "function"
    },
    {
      "inputs": [
        {
          "internalType": "bool",
          "name": "_isFreelancerWorkRejected",
          "type": "bool"
        }
      ],
      "name": "setFreelancerWorkRejected",
      "outputs": [],
      "stateMutability": "nonpayable",
      "type": "function"
    },
    {
      "inputs": [
        {
          "internalType": "uint256",
          "name": "_indexOfRequest",
          "type": "uint256"
        }
      ],
      "name": "unlockRequest",
      "outputs": [],
      "stateMutability": "nonpayable",
      "type": "function"
    },
    {
      "inputs": [],
      "name": "withdrawAmountByFreelancer",
      "outputs": [],
      "stateMutability": "nonpayable",
      "type": "function"
    },
    {
      "stateMutability": "payable",
      "type": "receive"
    }
  ],
  "bytecode": "0x608060405260008060006101000a81548160ff0219169083151502179055506001600060016101000a81548160ff02191690831515021790555060006005556040516200237038038062002370833981810160405281019062000063919062000228565b82600060026101000a81548173ffffffffffffffffffffffffffffffffffffffff021916908373ffffffffffffffffffffffffffffffffffffffff16021790555083600160006101000a81548173ffffffffffffffffffffffffffffffffffffffff021916908373ffffffffffffffffffffffffffffffffffffffff16021790555081600260006101000a81548173ffffffffffffffffffffffffffffffffffffffff021916908373ffffffffffffffffffffffffffffffffffffffff1602179055508060038190555034600481905550505050506200029a565b600080fd5b600073ffffffffffffffffffffffffffffffffffffffff82169050919050565b6000620001708262000143565b9050919050565b620001828162000163565b81146200018e57600080fd5b50565b600081519050620001a28162000177565b92915050565b6000620001b58262000143565b9050919050565b620001c781620001a8565b8114620001d357600080fd5b50565b600081519050620001e781620001bc565b92915050565b6000819050919050565b6200020281620001ed565b81146200020e57600080fd5b50565b6000815190506200022281620001f7565b92915050565b600080600080608085870312156200024557620002446200013e565b5b6000620002558782880162000191565b9450506020620002688782880162000191565b93505060406200027b87828801620001d6565b92505060606200028e8782880162000211565b91505092959194509250565b6120c680620002aa6000396000f3fe6080604052600436106101025760003560e01c8063a035b1fe11610095578063c5a73a6b11610064578063c5a73a6b14610337578063cadddd7d1461034e578063db12ec6d14610377578063e30081a0146103a2578063ef2f0916146103cb57610121565b8063a035b1fe1461028b578063a37dda2c146102b6578063ae200e79146102e1578063ae456c531461030c57610121565b806363d4dd3b116100d157806363d4dd3b146101cc5780637c0c787f146101f557806381d12c58146102205780638813ce121461026057610121565b8063195199f6146101265780631cc198671461014f57806329dcb0cf1461017857806362040328146101a357610121565b366101215734600460008282546101199190611121565b925050819055005b600080fd5b34801561013257600080fd5b5061014d600480360381019061014891906111b7565b6103e2565b005b34801561015b57600080fd5b50610176600480360381019061017191906111b7565b6103ec565b005b34801561018457600080fd5b5061018d610563565b60405161019a91906111f3565b60405180910390f35b3480156101af57600080fd5b506101ca60048036038101906101c59190611246565b610569565b005b3480156101d857600080fd5b506101f360048036038101906101ee91906111b7565b61065b565b005b34801561020157600080fd5b5061020a61087d565b60405161021791906111f3565b60405180910390f35b34801561022c57600080fd5b50610247600480360381019061024291906111b7565b610883565b604051610257949392919061131b565b60405180910390f35b34801561026c57600080fd5b50610275610965565b60405161028291906114f4565b60405180910390f35b34801561029757600080fd5b506102a0610a96565b6040516102ad91906111f3565b60405180910390f35b3480156102c257600080fd5b506102cb610a9c565b6040516102d89190611557565b60405180910390f35b3480156102ed57600080fd5b506102f6610ac2565b6040516103039190611557565b60405180910390f35b34801561031857600080fd5b50610321610ae8565b60405161032e9190611572565b60405180910390f35b34801561034357600080fd5b5061034c610afb565b005b34801561035a57600080fd5b50610375600480360381019061037091906116c2565b610cc1565b005b34801561038357600080fd5b5061038c610e97565b6040516103999190611572565b60405180910390f35b3480156103ae57600080fd5b506103c960048036038101906103c4919061174a565b610ea8565b005b3480156103d757600080fd5b506103e0610eec565b005b8060038190555050565b600160009054906101000a900473ffffffffffffffffffffffffffffffffffffffff1673ffffffffffffffffffffffffffffffffffffffff163373ffffffffffffffffffffffffffffffffffffffff161461047c576040517f08c379a0000000000000000000000000000000000000000000000000000000008152600401610473906117c3565b60405180910390fd5b600060068281548110610492576104916117e3565b5b90600052602060002090600302019050600115158160020160009054906101000a900460ff161515146104fa576040517f08c379a00000000000000000000000000000000000000000000000000000000081526004016104f19061185e565b60405180910390fd5b60008160020160006101000a81548160ff0219169083151502179055507f6917bd44e44c6202f36553b9769ed68f429767151c48c8015c03d6f15d7e4e458160020160009054906101000a900460ff166040516105579190611572565b60405180910390a15050565b60035481565b600160009054906101000a900473ffffffffffffffffffffffffffffffffffffffff1673ffffffffffffffffffffffffffffffffffffffff163373ffffffffffffffffffffffffffffffffffffffff16146105f9576040517f08c379a00000000000000000000000000000000000000000000000000000000081526004016105f0906117c3565b60405180910390fd5b60006005541161063e576040517f08c379a0000000000000000000000000000000000000000000000000000000008152600401610635906118ca565b60405180910390fd5b80600060016101000a81548160ff02191690831515021790555050565b600060029054906101000a900473ffffffffffffffffffffffffffffffffffffffff1673ffffffffffffffffffffffffffffffffffffffff163373ffffffffffffffffffffffffffffffffffffffff16146106eb576040517f08c379a00000000000000000000000000000000000000000000000000000000081526004016106e290611936565b60405180910390fd5b60006006805490509050808210610737576040517f08c379a000000000000000000000000000000000000000000000000000000000815260040161072e906119a2565b60405180910390fd5b60006006838154811061074d5761074c6117e3565b5b906000526020600020906003020190508060020160009054906101000a900460ff16156107af576040517f08c379a00000000000000000000000000000000000000000000000000000000081526004016107a690611a0e565b60405180910390fd5b8060020160019054906101000a900460ff1615610801576040517f08c379a00000000000000000000000000000000000000000000000000000000081526004016107f890611a7a565b60405180910390fd5b8060000154600560008282546108179190611121565b9250508190555060018160020160016101000a81548160ff0219169083151502179055507f8d3c4c2bd7fcd40b8e44b6e7331c1b5e1fd5cd51c8a6ff8a2051bc8280b1d88c338260000154604051610870929190611abb565b60405180910390a1505050565b60055481565b6006818154811061089357600080fd5b90600052602060002090600302016000915090508060000154908060010180546108bc90611b13565b80601f01602080910402602001604051908101604052809291908181526020018280546108e890611b13565b80156109355780601f1061090a57610100808354040283529160200191610935565b820191906000526020600020905b81548152906001019060200180831161091857829003601f168201915b5050505050908060020160009054906101000a900460ff16908060020160019054906101000a900460ff16905084565b60606006805480602002602001604051908101604052809291908181526020016000905b82821015610a8d5783829060005260206000209060030201604051806080016040529081600082015481526020016001820180546109c690611b13565b80601f01602080910402602001604051908101604052809291908181526020018280546109f290611b13565b8015610a3f5780601f10610a1457610100808354040283529160200191610a3f565b820191906000526020600020905b815481529060010190602001808311610a2257829003601f168201915b505050505081526020016002820160009054906101000a900460ff161515151581526020016002820160019054906101000a900460ff16151515158152505081526020019060010190610989565b50505050905090565b60045481565b600060029054906101000a900473ffffffffffffffffffffffffffffffffffffffff1681565b600160009054906101000a900473ffffffffffffffffffffffffffffffffffffffff1681565b600060019054906101000a900460ff1681565b600060029054906101000a900473ffffffffffffffffffffffffffffffffffffffff1673ffffffffffffffffffffffffffffffffffffffff163373ffffffffffffffffffffffffffffffffffffffff1614610b8b576040517f08c379a0000000000000000000000000000000000000000000000000000000008152600401610b8290611936565b60405180910390fd5b600060055411610bd0576040517f08c379a0000000000000000000000000000000000000000000000000000000008152600401610bc7906118ca565b60405180910390fd5b600060019054906101000a900460ff1615610c20576040517f08c379a0000000000000000000000000000000000000000000000000000000008152600401610c1790611b90565b60405180910390fd5b60008054906101000a900460ff1615610c6e576040517f08c379a0000000000000000000000000000000000000000000000000000000008152600401610c6590611bfc565b60405180910390fd5b610c9c600060029054906101000a900473ffffffffffffffffffffffffffffffffffffffff16600554611003565b60006005819055506001600060016101000a81548160ff021916908315150217905550565b600060029054906101000a900473ffffffffffffffffffffffffffffffffffffffff1673ffffffffffffffffffffffffffffffffffffffff163373ffffffffffffffffffffffffffffffffffffffff1614610d51576040517f08c379a0000000000000000000000000000000000000000000000000000000008152600401610d4890611936565b60405180910390fd5b60008211610d94576040517f08c379a0000000000000000000000000000000000000000000000000000000008152600401610d8b90611c68565b60405180910390fd5b600060405180608001604052808481526020018381526020016001151581526020016000151581525090506006819080600181540180825580915050600190039060005260206000209060030201600090919091909150600082015181600001556020820151816001019081610e0a9190611e34565b5060408201518160020160006101000a81548160ff02191690831515021790555060608201518160020160016101000a81548160ff02191690831515021790555050507f2eb69881e93c30c84880d81b38e73cb1abc5d2fb58cd7f2720ca6dc9a0e70f97838383604001518460600151604051610e8a949392919061131b565b60405180910390a1505050565b60008054906101000a900460ff1681565b80600060026101000a81548173ffffffffffffffffffffffffffffffffffffffff021916908373ffffffffffffffffffffffffffffffffffffffff16021790555050565b600260009054906101000a900473ffffffffffffffffffffffffffffffffffffffff1673ffffffffffffffffffffffffffffffffffffffff163373ffffffffffffffffffffffffffffffffffffffff1614610f7c576040517f08c379a0000000000000000000000000000000000000000000000000000000008152600401610f7390611f52565b60405180910390fd5b600060019054906101000a900460ff16610fcb576040517f08c379a0000000000000000000000000000000000000000000000000000000008152600401610fc290611fbe565b60405180910390fd5b610ff9600160009054906101000a900473ffffffffffffffffffffffffffffffffffffffff16600554611003565b6000600581905550565b60016000806101000a81548160ff02191690831515021790555060008273ffffffffffffffffffffffffffffffffffffffff16826040516110439061200f565b60006040518083038185875af1925050503d8060008114611080576040519150601f19603f3d011682016040523d82523d6000602084013e611085565b606091505b50509050806110c9576040517f08c379a00000000000000000000000000000000000000000000000000000000081526004016110c090612070565b60405180910390fd5b60008060006101000a81548160ff021916908315150217905550505050565b6000819050919050565b7f4e487b7100000000000000000000000000000000000000000000000000000000600052601160045260246000fd5b600061112c826110e8565b9150611137836110e8565b9250827fffffffffffffffffffffffffffffffffffffffffffffffffffffffffffffffff0382111561116c5761116b6110f2565b5b828201905092915050565b6000604051905090565b600080fd5b600080fd5b611194816110e8565b811461119f57600080fd5b50565b6000813590506111b18161118b565b92915050565b6000602082840312156111cd576111cc611181565b5b60006111db848285016111a2565b91505092915050565b6111ed816110e8565b82525050565b600060208201905061120860008301846111e4565b92915050565b60008115159050919050565b6112238161120e565b811461122e57600080fd5b50565b6000813590506112408161121a565b92915050565b60006020828403121561125c5761125b611181565b5b600061126a84828501611231565b91505092915050565b600081519050919050565b600082825260208201905092915050565b60005b838110156112ad578082015181840152602081019050611292565b838111156112bc576000848401525b50505050565b6000601f19601f8301169050919050565b60006112de82611273565b6112e8818561127e565b93506112f881856020860161128f565b611301816112c2565b840191505092915050565b6113158161120e565b82525050565b600060808201905061133060008301876111e4565b818103602083015261134281866112d3565b9050611351604083018561130c565b61135e606083018461130c565b95945050505050565b600081519050919050565b600082825260208201905092915050565b6000819050602082019050919050565b61139c816110e8565b82525050565b600082825260208201905092915050565b60006113be82611273565b6113c881856113a2565b93506113d881856020860161128f565b6113e1816112c2565b840191505092915050565b6113f58161120e565b82525050565b60006080830160008301516114136000860182611393565b506020830151848203602086015261142b82826113b3565b915050604083015161144060408601826113ec565b50606083015161145360608601826113ec565b508091505092915050565b600061146a83836113fb565b905092915050565b6000602082019050919050565b600061148a82611367565b6114948185611372565b9350836020820285016114a685611383565b8060005b858110156114e257848403895281516114c3858261145e565b94506114ce83611472565b925060208a019950506001810190506114aa565b50829750879550505050505092915050565b6000602082019050818103600083015261150e818461147f565b905092915050565b600073ffffffffffffffffffffffffffffffffffffffff82169050919050565b600061154182611516565b9050919050565b61155181611536565b82525050565b600060208201905061156c6000830184611548565b92915050565b6000602082019050611587600083018461130c565b92915050565b600080fd5b600080fd5b7f4e487b7100000000000000000000000000000000000000000000000000000000600052604160045260246000fd5b6115cf826112c2565b810181811067ffffffffffffffff821117156115ee576115ed611597565b5b80604052505050565b6000611601611177565b905061160d82826115c6565b919050565b600067ffffffffffffffff82111561162d5761162c611597565b5b611636826112c2565b9050602081019050919050565b82818337600083830152505050565b600061166561166084611612565b6115f7565b90508281526020810184848401111561168157611680611592565b5b61168c848285611643565b509392505050565b600082601f8301126116a9576116a861158d565b5b81356116b9848260208601611652565b91505092915050565b600080604083850312156116d9576116d8611181565b5b60006116e7858286016111a2565b925050602083013567ffffffffffffffff81111561170857611707611186565b5b61171485828601611694565b9150509250929050565b61172781611536565b811461173257600080fd5b50565b6000813590506117448161171e565b92915050565b6000602082840312156117605761175f611181565b5b600061176e84828501611735565b91505092915050565b7f4f6e6c7920656d706c6f79657221000000000000000000000000000000000000600082015250565b60006117ad600e8361127e565b91506117b882611777565b602082019050919050565b600060208201905081810360008301526117dc816117a0565b9050919050565b7f4e487b7100000000000000000000000000000000000000000000000000000000600052603260045260246000fd5b7f416c7265616479206c6f636b6564210000000000000000000000000000000000600082015250565b6000611848600f8361127e565b915061185382611812565b602082019050919050565b600060208201905081810360008301526118778161183b565b9050919050565b7f4e6f20616d6f756e74206f77656420746f20667265656c616e63657221000000600082015250565b60006118b4601d8361127e565b91506118bf8261187e565b602082019050919050565b600060208201905081810360008301526118e3816118a7565b9050919050565b7f4f6e6c7920667265656c616e6365722100000000000000000000000000000000600082015250565b600061192060108361127e565b915061192b826118ea565b602082019050919050565b6000602082019050818103600083015261194f81611913565b9050919050565b7f456c656d656e7420646f6573206e6f7420657869737420696e20617272617921600082015250565b600061198c60208361127e565b915061199782611956565b602082019050919050565b600060208201905081810360008301526119bb8161197f565b9050919050565b7f52657175657374206c6f636b6564210000000000000000000000000000000000600082015250565b60006119f8600f8361127e565b9150611a03826119c2565b602082019050919050565b60006020820190508181036000830152611a27816119eb565b9050919050565b7f5265717565737420706169642100000000000000000000000000000000000000600082015250565b6000611a64600d8361127e565b9150611a6f82611a2e565b602082019050919050565b60006020820190508181036000830152611a9381611a57565b9050919050565b6000611aa582611516565b9050919050565b611ab581611a9a565b82525050565b6000604082019050611ad06000830185611aac565b611add60208301846111e4565b9392505050565b7f4e487b7100000000000000000000000000000000000000000000000000000000600052602260045260246000fd5b60006002820490506001821680611b2b57607f821691505b602082108103611b3e57611b3d611ae4565b5b50919050565b7f576f726b207761736e277420617070726f766564210000000000000000000000600082015250565b6000611b7a60158361127e565b9150611b8582611b44565b602082019050919050565b60006020820190508181036000830152611ba981611b6d565b9050919050565b7f5265656e7472616e742064657465637465642100000000000000000000000000600082015250565b6000611be660138361127e565b9150611bf182611bb0565b602082019050919050565b60006020820190508181036000830152611c1581611bd9565b9050919050565b7f53686f756c642062652067726561746572207468616e20302100000000000000600082015250565b6000611c5260198361127e565b9150611c5d82611c1c565b602082019050919050565b60006020820190508181036000830152611c8181611c45565b9050919050565b60008190508160005260206000209050919050565b60006020601f8301049050919050565b600082821b905092915050565b600060088302611cea7fffffffffffffffffffffffffffffffffffffffffffffffffffffffffffffffff82611cad565b611cf48683611cad565b95508019841693508086168417925050509392505050565b6000819050919050565b6000611d31611d2c611d27846110e8565b611d0c565b6110e8565b9050919050565b6000819050919050565b611d4b83611d16565b611d5f611d5782611d38565b848454611cba565b825550505050565b600090565b611d74611d67565b611d7f818484611d42565b505050565b5b81811015611da357611d98600082611d6c565b600181019050611d85565b5050565b601f821115611de857611db981611c88565b611dc284611c9d565b81016020851015611dd1578190505b611de5611ddd85611c9d565b830182611d84565b50505b505050565b600082821c905092915050565b6000611e0b60001984600802611ded565b1980831691505092915050565b6000611e248383611dfa565b9150826002028217905092915050565b611e3d82611273565b67ffffffffffffffff811115611e5657611e55611597565b5b611e608254611b13565b611e6b828285611da7565b600060209050601f831160018114611e9e5760008415611e8c578287015190505b611e968582611e18565b865550611efe565b601f198416611eac86611c88565b60005b82811015611ed457848901518255600182019150602085019450602081019050611eaf565b86831015611ef15784890151611eed601f891682611dfa565b8355505b6001600288020188555050505b505050505050565b7f4f6e6c792061646d696e21000000000000000000000000000000000000000000600082015250565b6000611f3c600b8361127e565b9150611f4782611f06565b602082019050919050565b60006020820190508181036000830152611f6b81611f2f565b9050919050565b7f456d706c6f796572206861736e27742072656a656374656420776f726b210000600082015250565b6000611fa8601e8361127e565b9150611fb382611f72565b602082019050919050565b60006020820190508181036000830152611fd781611f9b565b9050919050565b600081905092915050565b50565b6000611ff9600083611fde565b915061200482611fe9565b600082019050919050565b600061201a82611fec565b9150819050919050565b7f5472616e73666572206661696c65642100000000000000000000000000000000600082015250565b600061205a60108361127e565b915061206582612024565b602082019050919050565b600060208201905081810360008301526120898161204d565b905091905056fea264697066735822122006775c36f1fa82b1bfa119f694372254937ddfe8aac39a0563850b999e75305364736f6c634300080f0033",
  "linkReferences": {},
  "deployedLinkReferences": {}
}