{
  "_format": "hh-sol-artifact-1",
  "contractName": "Delance",
  "sourceName": "contracts/Delance.sol",
  "abi": [
    {
      "inputs": [
        {
          "internalType": "address payable",
          "name": "_freelancer",
          "type": "address"
        },
        {
          "internalType": "uint256",
          "name": "_deadline",
          "type": "uint256"
        }
      ],
      "stateMutability": "payable",
      "type": "constructor"
    },
    {
      "anonymous": false,
      "inputs": [
        {
          "indexed": false,
          "internalType": "uint256",
          "name": "amount",
          "type": "uint256"
        },
        {
          "indexed": false,
          "internalType": "string",
          "name": "title",
          "type": "string"
        },
        {
          "indexed": false,
          "internalType": "bool",
          "name": "locked",
          "type": "bool"
        },
        {
          "indexed": false,
          "internalType": "bool",
          "name": "paid",
          "type": "bool"
        }
      ],
      "name": "RequestCreated",
      "type": "event"
    },
    {
      "anonymous": false,
      "inputs": [
        {
          "indexed": false,
          "internalType": "address",
          "name": "receiver",
          "type": "address"
        },
        {
          "indexed": false,
          "internalType": "uint256",
          "name": "amount",
          "type": "uint256"
        }
      ],
      "name": "RequestPaid",
      "type": "event"
    },
    {
      "anonymous": false,
      "inputs": [
        {
          "indexed": false,
          "internalType": "bool",
          "name": "locked",
          "type": "bool"
        }
      ],
      "name": "RequestUnlocked",
      "type": "event"
    },
    {
      "inputs": [
        {
          "internalType": "uint256",
          "name": "_amount",
          "type": "uint256"
        },
        {
          "internalType": "string",
          "name": "_title",
          "type": "string"
        }
      ],
      "name": "createRequest",
      "outputs": [],
      "stateMutability": "nonpayable",
      "type": "function"
    },
    {
      "inputs": [],
      "name": "deadline",
      "outputs": [
        {
          "internalType": "uint256",
          "name": "",
          "type": "uint256"
        }
      ],
      "stateMutability": "view",
      "type": "function"
    },
    {
      "inputs": [],
      "name": "employer",
      "outputs": [
        {
          "internalType": "address payable",
          "name": "",
          "type": "address"
        }
      ],
      "stateMutability": "view",
      "type": "function"
    },
    {
      "inputs": [],
      "name": "freelancer",
      "outputs": [
        {
          "internalType": "address payable",
          "name": "",
          "type": "address"
        }
      ],
      "stateMutability": "view",
      "type": "function"
    },
    {
      "inputs": [],
      "name": "getRequests",
      "outputs": [
        {
          "components": [
            {
              "internalType": "uint256",
              "name": "amount",
              "type": "uint256"
            },
            {
              "internalType": "string",
              "name": "title",
              "type": "string"
            },
            {
              "internalType": "bool",
              "name": "locked",
              "type": "bool"
            },
            {
              "internalType": "bool",
              "name": "paid",
              "type": "bool"
            }
          ],
          "internalType": "struct Delance.Request[]",
          "name": "",
          "type": "tuple[]"
        }
      ],
      "stateMutability": "view",
      "type": "function"
    },
    {
      "inputs": [
        {
          "internalType": "uint256",
          "name": "indexOfRequestToPay",
          "type": "uint256"
        }
      ],
      "name": "payRequest",
      "outputs": [],
      "stateMutability": "nonpayable",
      "type": "function"
    },
    {
      "inputs": [],
      "name": "payRequestLocked",
      "outputs": [
        {
          "internalType": "bool",
          "name": "",
          "type": "bool"
        }
      ],
      "stateMutability": "view",
      "type": "function"
    },
    {
      "inputs": [],
      "name": "price",
      "outputs": [
        {
          "internalType": "uint256",
          "name": "",
          "type": "uint256"
        }
      ],
      "stateMutability": "view",
      "type": "function"
    },
    {
      "inputs": [
        {
          "internalType": "uint256",
          "name": "",
          "type": "uint256"
        }
      ],
      "name": "requests",
      "outputs": [
        {
          "internalType": "uint256",
          "name": "amount",
          "type": "uint256"
        },
        {
          "internalType": "string",
          "name": "title",
          "type": "string"
        },
        {
          "internalType": "bool",
          "name": "locked",
          "type": "bool"
        },
        {
          "internalType": "bool",
          "name": "paid",
          "type": "bool"
        }
      ],
      "stateMutability": "view",
      "type": "function"
    },
    {
      "inputs": [
        {
          "internalType": "address payable",
          "name": "_freelancer",
          "type": "address"
        }
      ],
      "name": "setAddress",
      "outputs": [],
      "stateMutability": "nonpayable",
      "type": "function"
    },
    {
      "inputs": [
        {
          "internalType": "uint256",
          "name": "_deadline",
          "type": "uint256"
        }
      ],
      "name": "setDeadline",
      "outputs": [],
      "stateMutability": "nonpayable",
      "type": "function"
    },
    {
      "inputs": [
        {
          "internalType": "uint256",
          "name": "_indexOfRequest",
          "type": "uint256"
        }
      ],
      "name": "unlockRequest",
      "outputs": [],
      "stateMutability": "nonpayable",
      "type": "function"
    },
    {
      "stateMutability": "payable",
      "type": "receive"
    }
  ],
  "bytecode": "0x608060405260008060006101000a81548160ff02191690831515021790555060405162001bfa38038062001bfa833981810160405281019062000043919062000180565b81600060016101000a81548173ffffffffffffffffffffffffffffffffffffffff021916908373ffffffffffffffffffffffffffffffffffffffff1602179055508060028190555033600160006101000a81548173ffffffffffffffffffffffffffffffffffffffff021916908373ffffffffffffffffffffffffffffffffffffffff160217905550346003819055505050620001c7565b600080fd5b600073ffffffffffffffffffffffffffffffffffffffff82169050919050565b60006200010d82620000e0565b9050919050565b6200011f8162000100565b81146200012b57600080fd5b50565b6000815190506200013f8162000114565b92915050565b6000819050919050565b6200015a8162000145565b81146200016657600080fd5b50565b6000815190506200017a816200014f565b92915050565b600080604083850312156200019a5762000199620000db565b5b6000620001aa858286016200012e565b9250506020620001bd8582860162000169565b9150509250929050565b611a2380620001d76000396000f3fe6080604052600436106100ab5760003560e01c8063a035b1fe11610064578063a035b1fe146101e0578063a37dda2c1461020b578063ae200e7914610236578063c65b4ae314610261578063cadddd7d1461028c578063e30081a0146102b5576100ca565b8063195199f6146100cf5780631cc19867146100f857806329dcb0cf1461012157806363d4dd3b1461014c57806381d12c58146101755780638813ce12146101b5576100ca565b366100ca5734600360008282546100c29190610c87565b925050819055005b600080fd5b3480156100db57600080fd5b506100f660048036038101906100f19190610d1d565b6102de565b005b34801561010457600080fd5b5061011f600480360381019061011a9190610d1d565b6102e8565b005b34801561012d57600080fd5b5061013661045f565b6040516101439190610d59565b60405180910390f35b34801561015857600080fd5b50610173600480360381019061016e9190610d1d565b610465565b005b34801561018157600080fd5b5061019c60048036038101906101979190610d1d565b6107be565b6040516101ac9493929190610e28565b60405180910390f35b3480156101c157600080fd5b506101ca6108a0565b6040516101d79190611001565b60405180910390f35b3480156101ec57600080fd5b506101f56109d1565b6040516102029190610d59565b60405180910390f35b34801561021757600080fd5b506102206109d7565b60405161022d9190611064565b60405180910390f35b34801561024257600080fd5b5061024b6109fd565b6040516102589190611064565b60405180910390f35b34801561026d57600080fd5b50610276610a23565b604051610283919061107f565b60405180910390f35b34801561029857600080fd5b506102b360048036038101906102ae91906111cf565b610a34565b005b3480156102c157600080fd5b506102dc60048036038101906102d79190611257565b610c0a565b005b8060028190555050565b600160009054906101000a900473ffffffffffffffffffffffffffffffffffffffff1673ffffffffffffffffffffffffffffffffffffffff163373ffffffffffffffffffffffffffffffffffffffff1614610378576040517f08c379a000000000000000000000000000000000000000000000000000000000815260040161036f906112d0565b60405180910390fd5b60006004828154811061038e5761038d6112f0565b5b90600052602060002090600302019050600115158160020160009054906101000a900460ff161515146103f6576040517f08c379a00000000000000000000000000000000000000000000000000000000081526004016103ed9061136b565b60405180910390fd5b60008160020160006101000a81548160ff0219169083151502179055507f6917bd44e44c6202f36553b9769ed68f429767151c48c8015c03d6f15d7e4e458160020160009054906101000a900460ff16604051610453919061107f565b60405180910390a15050565b60025481565b600060019054906101000a900473ffffffffffffffffffffffffffffffffffffffff1673ffffffffffffffffffffffffffffffffffffffff163373ffffffffffffffffffffffffffffffffffffffff16146104f5576040517f08c379a00000000000000000000000000000000000000000000000000000000081526004016104ec906113d7565b60405180910390fd5b60008054906101000a900460ff1615610543576040517f08c379a000000000000000000000000000000000000000000000000000000000815260040161053a90611443565b60405180910390fd5b6000600480549050905080821061058f576040517f08c379a0000000000000000000000000000000000000000000000000000000008152600401610586906114af565b60405180910390fd5b6000600483815481106105a5576105a46112f0565b5b906000526020600020906003020190508060020160009054906101000a900460ff1615610607576040517f08c379a00000000000000000000000000000000000000000000000000000000081526004016105fe9061151b565b60405180910390fd5b8060020160019054906101000a900460ff1615610659576040517f08c379a000000000000000000000000000000000000000000000000000000000815260040161065090611587565b60405180910390fd5b60016000806101000a81548160ff02191690831515021790555060008060019054906101000a900473ffffffffffffffffffffffffffffffffffffffff1673ffffffffffffffffffffffffffffffffffffffff1682600001546040516106be906115d8565b60006040518083038185875af1925050503d80600081146106fb576040519150601f19603f3d011682016040523d82523d6000602084013e610700565b606091505b5050905080610744576040517f08c379a000000000000000000000000000000000000000000000000000000000815260040161073b90611639565b60405180910390fd5b60018260020160016101000a81548160ff02191690831515021790555060008060006101000a81548160ff0219169083151502179055507f8d3c4c2bd7fcd40b8e44b6e7331c1b5e1fd5cd51c8a6ff8a2051bc8280b1d88c3383600001546040516107b092919061167a565b60405180910390a150505050565b600481815481106107ce57600080fd5b90600052602060002090600302016000915090508060000154908060010180546107f7906116d2565b80601f0160208091040260200160405190810160405280929190818152602001828054610823906116d2565b80156108705780601f1061084557610100808354040283529160200191610870565b820191906000526020600020905b81548152906001019060200180831161085357829003601f168201915b5050505050908060020160009054906101000a900460ff16908060020160019054906101000a900460ff16905084565b60606004805480602002602001604051908101604052809291908181526020016000905b828210156109c8578382906000526020600020906003020160405180608001604052908160008201548152602001600182018054610901906116d2565b80601f016020809104026020016040519081016040528092919081815260200182805461092d906116d2565b801561097a5780601f1061094f5761010080835404028352916020019161097a565b820191906000526020600020905b81548152906001019060200180831161095d57829003601f168201915b505050505081526020016002820160009054906101000a900460ff161515151581526020016002820160019054906101000a900460ff161515151581525050815260200190600101906108c4565b50505050905090565b60035481565b600060019054906101000a900473ffffffffffffffffffffffffffffffffffffffff1681565b600160009054906101000a900473ffffffffffffffffffffffffffffffffffffffff1681565b60008054906101000a900460ff1681565b600060019054906101000a900473ffffffffffffffffffffffffffffffffffffffff1673ffffffffffffffffffffffffffffffffffffffff163373ffffffffffffffffffffffffffffffffffffffff1614610ac4576040517f08c379a0000000000000000000000000000000000000000000000000000000008152600401610abb906113d7565b60405180910390fd5b60008211610b07576040517f08c379a0000000000000000000000000000000000000000000000000000000008152600401610afe9061174f565b60405180910390fd5b600060405180608001604052808481526020018381526020016001151581526020016000151581525090506004819080600181540180825580915050600190039060005260206000209060030201600090919091909150600082015181600001556020820151816001019081610b7d919061191b565b5060408201518160020160006101000a81548160ff02191690831515021790555060608201518160020160016101000a81548160ff02191690831515021790555050507f2eb69881e93c30c84880d81b38e73cb1abc5d2fb58cd7f2720ca6dc9a0e70f97838383604001518460600151604051610bfd9493929190610e28565b60405180910390a1505050565b80600060016101000a81548173ffffffffffffffffffffffffffffffffffffffff021916908373ffffffffffffffffffffffffffffffffffffffff16021790555050565b6000819050919050565b7f4e487b7100000000000000000000000000000000000000000000000000000000600052601160045260246000fd5b6000610c9282610c4e565b9150610c9d83610c4e565b9250827fffffffffffffffffffffffffffffffffffffffffffffffffffffffffffffffff03821115610cd257610cd1610c58565b5b828201905092915050565b6000604051905090565b600080fd5b600080fd5b610cfa81610c4e565b8114610d0557600080fd5b50565b600081359050610d1781610cf1565b92915050565b600060208284031215610d3357610d32610ce7565b5b6000610d4184828501610d08565b91505092915050565b610d5381610c4e565b82525050565b6000602082019050610d6e6000830184610d4a565b92915050565b600081519050919050565b600082825260208201905092915050565b60005b83811015610dae578082015181840152602081019050610d93565b83811115610dbd576000848401525b50505050565b6000601f19601f8301169050919050565b6000610ddf82610d74565b610de98185610d7f565b9350610df9818560208601610d90565b610e0281610dc3565b840191505092915050565b60008115159050919050565b610e2281610e0d565b82525050565b6000608082019050610e3d6000830187610d4a565b8181036020830152610e4f8186610dd4565b9050610e5e6040830185610e19565b610e6b6060830184610e19565b95945050505050565b600081519050919050565b600082825260208201905092915050565b6000819050602082019050919050565b610ea981610c4e565b82525050565b600082825260208201905092915050565b6000610ecb82610d74565b610ed58185610eaf565b9350610ee5818560208601610d90565b610eee81610dc3565b840191505092915050565b610f0281610e0d565b82525050565b6000608083016000830151610f206000860182610ea0565b5060208301518482036020860152610f388282610ec0565b9150506040830151610f4d6040860182610ef9565b506060830151610f606060860182610ef9565b508091505092915050565b6000610f778383610f08565b905092915050565b6000602082019050919050565b6000610f9782610e74565b610fa18185610e7f565b935083602082028501610fb385610e90565b8060005b85811015610fef5784840389528151610fd08582610f6b565b9450610fdb83610f7f565b925060208a01995050600181019050610fb7565b50829750879550505050505092915050565b6000602082019050818103600083015261101b8184610f8c565b905092915050565b600073ffffffffffffffffffffffffffffffffffffffff82169050919050565b600061104e82611023565b9050919050565b61105e81611043565b82525050565b60006020820190506110796000830184611055565b92915050565b60006020820190506110946000830184610e19565b92915050565b600080fd5b600080fd5b7f4e487b7100000000000000000000000000000000000000000000000000000000600052604160045260246000fd5b6110dc82610dc3565b810181811067ffffffffffffffff821117156110fb576110fa6110a4565b5b80604052505050565b600061110e610cdd565b905061111a82826110d3565b919050565b600067ffffffffffffffff82111561113a576111396110a4565b5b61114382610dc3565b9050602081019050919050565b82818337600083830152505050565b600061117261116d8461111f565b611104565b90508281526020810184848401111561118e5761118d61109f565b5b611199848285611150565b509392505050565b600082601f8301126111b6576111b561109a565b5b81356111c684826020860161115f565b91505092915050565b600080604083850312156111e6576111e5610ce7565b5b60006111f485828601610d08565b925050602083013567ffffffffffffffff81111561121557611214610cec565b5b611221858286016111a1565b9150509250929050565b61123481611043565b811461123f57600080fd5b50565b6000813590506112518161122b565b92915050565b60006020828403121561126d5761126c610ce7565b5b600061127b84828501611242565b91505092915050565b7f4f6e6c7920656d706c6f79657221000000000000000000000000000000000000600082015250565b60006112ba600e83610d7f565b91506112c582611284565b602082019050919050565b600060208201905081810360008301526112e9816112ad565b9050919050565b7f4e487b7100000000000000000000000000000000000000000000000000000000600052603260045260246000fd5b7f416c7265616479206c6f636b6564210000000000000000000000000000000000600082015250565b6000611355600f83610d7f565b91506113608261131f565b602082019050919050565b6000602082019050818103600083015261138481611348565b9050919050565b7f4f6e6c7920667265656c616e6365722100000000000000000000000000000000600082015250565b60006113c1601083610d7f565b91506113cc8261138b565b602082019050919050565b600060208201905081810360008301526113f0816113b4565b9050919050565b7f5265656e7472616e742064657465637465642100000000000000000000000000600082015250565b600061142d601383610d7f565b9150611438826113f7565b602082019050919050565b6000602082019050818103600083015261145c81611420565b9050919050565b7f456c656d656e7420646f6573206e6f7420657869737420696e20617272617921600082015250565b6000611499602083610d7f565b91506114a482611463565b602082019050919050565b600060208201905081810360008301526114c88161148c565b9050919050565b7f52657175657374206c6f636b6564210000000000000000000000000000000000600082015250565b6000611505600f83610d7f565b9150611510826114cf565b602082019050919050565b60006020820190508181036000830152611534816114f8565b9050919050565b7f5265717565737420706169642100000000000000000000000000000000000000600082015250565b6000611571600d83610d7f565b915061157c8261153b565b602082019050919050565b600060208201905081810360008301526115a081611564565b9050919050565b600081905092915050565b50565b60006115c26000836115a7565b91506115cd826115b2565b600082019050919050565b60006115e3826115b5565b9150819050919050565b7f5472616e73666572206661696c65642100000000000000000000000000000000600082015250565b6000611623601083610d7f565b915061162e826115ed565b602082019050919050565b6000602082019050818103600083015261165281611616565b9050919050565b600061166482611023565b9050919050565b61167481611659565b82525050565b600060408201905061168f600083018561166b565b61169c6020830184610d4a565b9392505050565b7f4e487b7100000000000000000000000000000000000000000000000000000000600052602260045260246000fd5b600060028204905060018216806116ea57607f821691505b6020821081036116fd576116fc6116a3565b5b50919050565b7f53686f756c642062652067726561746572207468616e20302100000000000000600082015250565b6000611739601983610d7f565b915061174482611703565b602082019050919050565b600060208201905081810360008301526117688161172c565b9050919050565b60008190508160005260206000209050919050565b60006020601f8301049050919050565b600082821b905092915050565b6000600883026117d17fffffffffffffffffffffffffffffffffffffffffffffffffffffffffffffffff82611794565b6117db8683611794565b95508019841693508086168417925050509392505050565b6000819050919050565b600061181861181361180e84610c4e565b6117f3565b610c4e565b9050919050565b6000819050919050565b611832836117fd565b61184661183e8261181f565b8484546117a1565b825550505050565b600090565b61185b61184e565b611866818484611829565b505050565b5b8181101561188a5761187f600082611853565b60018101905061186c565b5050565b601f8211156118cf576118a08161176f565b6118a984611784565b810160208510156118b8578190505b6118cc6118c485611784565b83018261186b565b50505b505050565b600082821c905092915050565b60006118f2600019846008026118d4565b1980831691505092915050565b600061190b83836118e1565b9150826002028217905092915050565b61192482610d74565b67ffffffffffffffff81111561193d5761193c6110a4565b5b61194782546116d2565b61195282828561188e565b600060209050601f8311600181146119855760008415611973578287015190505b61197d85826118ff565b8655506119e5565b601f1984166119938661176f565b60005b828110156119bb57848901518255600182019150602085019450602081019050611996565b868310156119d857848901516119d4601f8916826118e1565b8355505b6001600288020188555050505b50505050505056fea2646970667358221220b2adc339785210526ed4413bd174de62dcaee66767e38c74b3db1d96fdbace5564736f6c634300080f0033",
  "linkReferences": {},
  "deployedLinkReferences": {}
}